{
  "_format": "hh-sol-artifact-1",
  "contractName": "PredictionMarket",
  "sourceName": "contracts/PredictionMarket.sol",
  "abi": [
    {
      "inputs": [
        {
          "internalType": "uint256",
          "name": "subscriptionId",
          "type": "uint256"
        }
      ],
      "stateMutability": "nonpayable",
      "type": "constructor"
    },
    {
      "inputs": [
        {
          "internalType": "address",
          "name": "have",
          "type": "address"
        },
        {
          "internalType": "address",
          "name": "want",
          "type": "address"
        }
      ],
      "name": "OnlyCoordinatorCanFulfill",
      "type": "error"
    },
    {
      "inputs": [
        {
          "internalType": "address",
          "name": "have",
          "type": "address"
        },
        {
          "internalType": "address",
          "name": "owner",
          "type": "address"
        },
        {
          "internalType": "address",
          "name": "coordinator",
          "type": "address"
        }
      ],
      "name": "OnlyOwnerOrCoordinator",
      "type": "error"
    },
    {
      "inputs": [],
      "name": "ZeroAddress",
      "type": "error"
    },
    {
      "anonymous": false,
      "inputs": [
        {
          "indexed": true,
          "internalType": "uint256",
          "name": "marketId",
          "type": "uint256"
        },
        {
          "indexed": false,
          "internalType": "address",
          "name": "user",
          "type": "address"
        },
        {
          "indexed": false,
          "internalType": "string",
          "name": "outcome",
          "type": "string"
        },
        {
          "indexed": false,
          "internalType": "uint256",
          "name": "amount",
          "type": "uint256"
        }
      ],
      "name": "BetPlaced",
      "type": "event"
    },
    {
      "anonymous": false,
      "inputs": [
        {
          "indexed": false,
          "internalType": "address",
          "name": "vrfCoordinator",
          "type": "address"
        }
      ],
      "name": "CoordinatorSet",
      "type": "event"
    },
    {
      "anonymous": false,
      "inputs": [
        {
          "indexed": true,
          "internalType": "uint256",
          "name": "marketId",
          "type": "uint256"
        },
        {
          "indexed": false,
          "internalType": "string",
          "name": "question",
          "type": "string"
        },
        {
          "indexed": false,
          "internalType": "uint256",
          "name": "endTime",
          "type": "uint256"
        }
      ],
      "name": "MarketCreated",
      "type": "event"
    },
    {
      "anonymous": false,
      "inputs": [
        {
          "indexed": true,
          "internalType": "uint256",
          "name": "marketId",
          "type": "uint256"
        },
        {
          "indexed": false,
          "internalType": "string",
          "name": "outcome",
          "type": "string"
        }
      ],
      "name": "MarketResolved",
      "type": "event"
    },
    {
      "anonymous": false,
      "inputs": [
        {
          "indexed": true,
          "internalType": "address",
          "name": "from",
          "type": "address"
        },
        {
          "indexed": true,
          "internalType": "address",
          "name": "to",
          "type": "address"
        }
      ],
      "name": "OwnershipTransferRequested",
      "type": "event"
    },
    {
      "anonymous": false,
      "inputs": [
        {
          "indexed": true,
          "internalType": "address",
          "name": "from",
          "type": "address"
        },
        {
          "indexed": true,
          "internalType": "address",
          "name": "to",
          "type": "address"
        }
      ],
      "name": "OwnershipTransferred",
      "type": "event"
    },
    {
      "inputs": [],
      "name": "acceptOwnership",
      "outputs": [],
      "stateMutability": "nonpayable",
      "type": "function"
    },
    {
      "inputs": [
        {
          "internalType": "uint256",
          "name": "",
          "type": "uint256"
        },
        {
          "internalType": "address",
          "name": "",
          "type": "address"
        }
      ],
      "name": "betsNo",
      "outputs": [
        {
          "internalType": "uint256",
          "name": "",
          "type": "uint256"
        }
      ],
      "stateMutability": "view",
      "type": "function"
    },
    {
      "inputs": [
        {
          "internalType": "uint256",
          "name": "",
          "type": "uint256"
        },
        {
          "internalType": "address",
          "name": "",
          "type": "address"
        }
      ],
      "name": "betsYes",
      "outputs": [
        {
          "internalType": "uint256",
          "name": "",
          "type": "uint256"
        }
      ],
      "stateMutability": "view",
      "type": "function"
    },
    {
      "inputs": [
        {
          "internalType": "string",
          "name": "_question",
          "type": "string"
        },
        {
          "internalType": "uint256",
          "name": "_duration",
          "type": "uint256"
        }
      ],
      "name": "createMarket",
      "outputs": [],
      "stateMutability": "nonpayable",
      "type": "function"
    },
    {
      "inputs": [],
      "name": "marketCount",
      "outputs": [
        {
          "internalType": "uint256",
          "name": "",
          "type": "uint256"
        }
      ],
      "stateMutability": "view",
      "type": "function"
    },
    {
      "inputs": [
        {
          "internalType": "uint256",
          "name": "",
          "type": "uint256"
        }
      ],
      "name": "markets",
      "outputs": [
        {
          "internalType": "uint256",
          "name": "id",
          "type": "uint256"
        },
        {
          "internalType": "string",
          "name": "question",
          "type": "string"
        },
        {
          "internalType": "uint256",
          "name": "endTime",
          "type": "uint256"
        },
        {
          "internalType": "bool",
          "name": "resolved",
          "type": "bool"
        },
        {
          "internalType": "string",
          "name": "outcome",
          "type": "string"
        },
        {
          "internalType": "uint256",
          "name": "totalBetsYes",
          "type": "uint256"
        },
        {
          "internalType": "uint256",
          "name": "totalBetsNo",
          "type": "uint256"
        }
      ],
      "stateMutability": "view",
      "type": "function"
    },
    {
      "inputs": [],
      "name": "owner",
      "outputs": [
        {
          "internalType": "address",
          "name": "",
          "type": "address"
        }
      ],
      "stateMutability": "view",
      "type": "function"
    },
    {
      "inputs": [
        {
          "internalType": "uint256",
          "name": "_marketId",
          "type": "uint256"
        },
        {
          "internalType": "bool",
          "name": "_betOnYes",
          "type": "bool"
        }
      ],
      "name": "placeBet",
      "outputs": [],
      "stateMutability": "payable",
      "type": "function"
    },
    {
      "inputs": [
        {
          "internalType": "uint256",
          "name": "requestId",
          "type": "uint256"
        },
        {
          "internalType": "uint256[]",
          "name": "randomWords",
          "type": "uint256[]"
        }
      ],
      "name": "rawFulfillRandomWords",
      "outputs": [],
      "stateMutability": "nonpayable",
      "type": "function"
    },
    {
      "inputs": [
        {
          "internalType": "uint256",
          "name": "",
          "type": "uint256"
        }
      ],
      "name": "requestIdToMarketId",
      "outputs": [
        {
          "internalType": "uint256",
          "name": "",
          "type": "uint256"
        }
      ],
      "stateMutability": "view",
      "type": "function"
    },
    {
      "inputs": [
        {
          "internalType": "uint256",
          "name": "_marketId",
          "type": "uint256"
        }
      ],
      "name": "resolveMarket",
      "outputs": [],
      "stateMutability": "nonpayable",
      "type": "function"
    },
    {
      "inputs": [],
      "name": "s_vrfCoordinator",
      "outputs": [
        {
          "internalType": "contract IVRFCoordinatorV2Plus",
          "name": "",
          "type": "address"
        }
      ],
      "stateMutability": "view",
      "type": "function"
    },
    {
      "inputs": [
        {
          "internalType": "address",
          "name": "_vrfCoordinator",
          "type": "address"
        }
      ],
      "name": "setCoordinator",
      "outputs": [],
      "stateMutability": "nonpayable",
      "type": "function"
    },
    {
      "inputs": [
        {
          "internalType": "address",
          "name": "to",
          "type": "address"
        }
      ],
      "name": "transferOwnership",
      "outputs": [],
      "stateMutability": "nonpayable",
      "type": "function"
    }
  ],
  "bytecode": "0x6080604052735c210ef41cd1a72de73bf76ec39637bb0d3d7bee600460006101000a81548173ffffffffffffffffffffffffffffffffffffffff021916908373ffffffffffffffffffffffffffffffffffffffff1602179055507f1770bdc7eec7771f7ba4ffd640f34260d7f095b79c92d34a5b2551d6f6cfd2be60001b600555620186a0600660006101000a81548163ffffffff021916908363ffffffff1602179055506003600660046101000a81548161ffff021916908361ffff16021790555060016006806101000a81548163ffffffff021916908363ffffffff160217905550348015620000f057600080fd5b5060405162002a0038038062002a0083398181016040528101906200011691906200045e565b600460009054906101000a900473ffffffffffffffffffffffffffffffffffffffff16338060008073ffffffffffffffffffffffffffffffffffffffff168273ffffffffffffffffffffffffffffffffffffffff1603620001ae576040517f08c379a0000000000000000000000000000000000000000000000000000000008152600401620001a590620004f1565b60405180910390fd5b816000806101000a81548173ffffffffffffffffffffffffffffffffffffffff021916908373ffffffffffffffffffffffffffffffffffffffff160217905550600073ffffffffffffffffffffffffffffffffffffffff168173ffffffffffffffffffffffffffffffffffffffff161462000235576200023481620002ef60201b60201c565b5b505050600073ffffffffffffffffffffffffffffffffffffffff168173ffffffffffffffffffffffffffffffffffffffff16036200029f576040517fd92e233d00000000000000000000000000000000000000000000000000000000815260040160405180910390fd5b80600260006101000a81548173ffffffffffffffffffffffffffffffffffffffff021916908373ffffffffffffffffffffffffffffffffffffffff16021790555050806003819055505062000585565b3373ffffffffffffffffffffffffffffffffffffffff168173ffffffffffffffffffffffffffffffffffffffff160362000360576040517f08c379a0000000000000000000000000000000000000000000000000000000008152600401620003579062000563565b60405180910390fd5b80600160006101000a81548173ffffffffffffffffffffffffffffffffffffffff021916908373ffffffffffffffffffffffffffffffffffffffff1602179055508073ffffffffffffffffffffffffffffffffffffffff1660008054906101000a900473ffffffffffffffffffffffffffffffffffffffff1673ffffffffffffffffffffffffffffffffffffffff167fed8889f560326eb138920d842192f0eb3dd22b4f139c87a2c57538e05bae127860405160405180910390a350565b600080fd5b6000819050919050565b620004388162000423565b81146200044457600080fd5b50565b60008151905062000458816200042d565b92915050565b6000602082840312156200047757620004766200041e565b5b6000620004878482850162000447565b91505092915050565b600082825260208201905092915050565b7f43616e6e6f7420736574206f776e657220746f207a65726f0000000000000000600082015250565b6000620004d960188362000490565b9150620004e682620004a1565b602082019050919050565b600060208201905081810360008301526200050c81620004ca565b9050919050565b7f43616e6e6f74207472616e7366657220746f2073656c66000000000000000000600082015250565b60006200054b60178362000490565b9150620005588262000513565b602082019050919050565b600060208201905081810360008301526200057e816200053c565b9050919050565b61246b80620005956000396000f3fe6080604052600436106100dd5760003560e01c80638ea981171161007f578063b1283e7711610059578063b1283e7714610289578063ec979082146102cc578063ecb0b138146102f7578063f2fde38b14610334576100dd565b80638ea98117146102195780639eccacf6146102425780639ed9c74d1461026d576100dd565b80636399d03d116100bb5780636399d03d1461018557806379ba5097146101ae578063883c84c1146101c55780638da5cb5b146101ee576100dd565b80630939fc83146100e25780631fe543e31461011f578063442cd55514610148575b600080fd5b3480156100ee57600080fd5b50610109600480360381019061010491906113b4565b61035d565b6040516101169190611403565b60405180910390f35b34801561012b57600080fd5b5061014660048036038101906101419190611483565b610382565b005b34801561015457600080fd5b5061016f600480360381019061016a91906113b4565b610448565b60405161017c9190611403565b60405180910390f35b34801561019157600080fd5b506101ac60048036038101906101a791906114e3565b61046d565b005b3480156101ba57600080fd5b506101c3610628565b005b3480156101d157600080fd5b506101ec60048036038101906101e79190611651565b6107bd565b005b3480156101fa57600080fd5b50610203610926565b60405161021091906116bc565b60405180910390f35b34801561022557600080fd5b50610240600480360381019061023b91906116d7565b61094f565b005b34801561024e57600080fd5b50610257610b30565b6040516102649190611763565b60405180910390f35b610287600480360381019061028291906117b6565b610b56565b005b34801561029557600080fd5b506102b060048036038101906102ab91906114e3565b610dd1565b6040516102c39796959493929190611884565b60405180910390f35b3480156102d857600080fd5b506102e1610f30565b6040516102ee9190611403565b60405180910390f35b34801561030357600080fd5b5061031e600480360381019061031991906114e3565b610f36565b60405161032b9190611403565b60405180910390f35b34801561034057600080fd5b5061035b600480360381019061035691906116d7565b610f4e565b005b6009602052816000526040600020602052806000526040600020600091509150505481565b600260009054906101000a900473ffffffffffffffffffffffffffffffffffffffff1673ffffffffffffffffffffffffffffffffffffffff163373ffffffffffffffffffffffffffffffffffffffff16146104385733600260009054906101000a900473ffffffffffffffffffffffffffffffffffffffff166040517f1cf993f400000000000000000000000000000000000000000000000000000000815260040161042f929190611901565b60405180910390fd5b610443838383610f62565b505050565b600a602052816000526040600020602052806000526040600020600091509150505481565b6104756110b8565b60006007600083815260200190815260200160002090508060030160009054906101000a900460ff16156104de576040517f08c379a00000000000000000000000000000000000000000000000000000000081526004016104d590611976565b60405180910390fd5b6000600260009054906101000a900473ffffffffffffffffffffffffffffffffffffffff1673ffffffffffffffffffffffffffffffffffffffff16639b1c385e6040518060c0016040528060055481526020016003548152602001600660049054906101000a900461ffff1661ffff168152602001600660009054906101000a900463ffffffff1663ffffffff16815260200160068054906101000a900463ffffffff1663ffffffff1681526020016105a7604051806020016040528060001515815250611148565b8152506040518263ffffffff1660e01b81526004016105c69190611ad8565b6020604051808303816000875af11580156105e5573d6000803e3d6000fd5b505050506040513d601f19601f820116820180604052508101906106099190611b0f565b905082600b600083815260200190815260200160002081905550505050565b600160009054906101000a900473ffffffffffffffffffffffffffffffffffffffff1673ffffffffffffffffffffffffffffffffffffffff163373ffffffffffffffffffffffffffffffffffffffff16146106b8576040517f08c379a00000000000000000000000000000000000000000000000000000000081526004016106af90611b88565b60405180910390fd5b60008060009054906101000a900473ffffffffffffffffffffffffffffffffffffffff169050336000806101000a81548173ffffffffffffffffffffffffffffffffffffffff021916908373ffffffffffffffffffffffffffffffffffffffff1602179055506000600160006101000a81548173ffffffffffffffffffffffffffffffffffffffff021916908373ffffffffffffffffffffffffffffffffffffffff1602179055503373ffffffffffffffffffffffffffffffffffffffff168173ffffffffffffffffffffffffffffffffffffffff167f8be0079c531659141344cd1fd0a4f28419497f9722a3daafe3b4186f6b6457e060405160405180910390a350565b600860008154809291906107d090611bd7565b91905055506040518060e00160405280600854815260200183815260200182426107fa9190611c1f565b81526020016000151581526020016040518060400160405280600781526020017f50454e44494e470000000000000000000000000000000000000000000000000081525081526020016000815260200160008152506007600060085481526020019081526020016000206000820151816000015560208201518160010190816108839190611e55565b506040820151816002015560608201518160030160006101000a81548160ff02191690831515021790555060808201518160040190816108c39190611e55565b5060a0820151816005015560c082015181600601559050506008547f2d1e9ad45dbe8e898e0374deebf2a661b2ae7c1855d2a29507d584c35d287c7583834261090c9190611c1f565b60405161091a929190611f27565b60405180910390a25050565b60008060009054906101000a900473ffffffffffffffffffffffffffffffffffffffff16905090565b610957610926565b73ffffffffffffffffffffffffffffffffffffffff163373ffffffffffffffffffffffffffffffffffffffff16141580156109e05750600260009054906101000a900473ffffffffffffffffffffffffffffffffffffffff1673ffffffffffffffffffffffffffffffffffffffff163373ffffffffffffffffffffffffffffffffffffffff1614155b15610a4f57336109ee610926565b600260009054906101000a900473ffffffffffffffffffffffffffffffffffffffff166040517f061db9c1000000000000000000000000000000000000000000000000000000008152600401610a4693929190611f57565b60405180910390fd5b600073ffffffffffffffffffffffffffffffffffffffff168173ffffffffffffffffffffffffffffffffffffffff1603610ab5576040517fd92e233d00000000000000000000000000000000000000000000000000000000815260040160405180910390fd5b80600260006101000a81548173ffffffffffffffffffffffffffffffffffffffff021916908373ffffffffffffffffffffffffffffffffffffffff1602179055507fd1a6a14209a385a964d036e404cb5cfb71f4000cdb03c9366292430787261be681604051610b2591906116bc565b60405180910390a150565b600260009054906101000a900473ffffffffffffffffffffffffffffffffffffffff1681565b600060076000848152602001908152602001600020905080600201544210610bb3576040517f08c379a0000000000000000000000000000000000000000000000000000000008152600401610baa90611fda565b60405180910390fd5b8060030160009054906101000a900460ff1615610c05576040517f08c379a0000000000000000000000000000000000000000000000000000000008152600401610bfc90612046565b60405180910390fd5b60003411610c48576040517f08c379a0000000000000000000000000000000000000000000000000000000008152600401610c3f906120b2565b60405180910390fd5b8115610d0f57346009600085815260200190815260200160002060003373ffffffffffffffffffffffffffffffffffffffff1673ffffffffffffffffffffffffffffffffffffffff1681526020019081526020016000206000828254610cae9190611c1f565b9250508190555034816005016000828254610cc99190611c1f565b92505081905550827ffabf9d34f9bf696c17fd04bafbdc4f74840410108fc5db3f77ea5f0815edc7363334604051610d0292919061211e565b60405180910390a2610dcc565b34600a600085815260200190815260200160002060003373ffffffffffffffffffffffffffffffffffffffff1673ffffffffffffffffffffffffffffffffffffffff1681526020019081526020016000206000828254610d6f9190611c1f565b9250508190555034816006016000828254610d8a9190611c1f565b92505081905550827ffabf9d34f9bf696c17fd04bafbdc4f74840410108fc5db3f77ea5f0815edc7363334604051610dc39291906121a6565b60405180910390a25b505050565b6007602052806000526040600020600091509050806000015490806001018054610dfa90611c82565b80601f0160208091040260200160405190810160405280929190818152602001828054610e2690611c82565b8015610e735780601f10610e4857610100808354040283529160200191610e73565b820191906000526020600020905b815481529060010190602001808311610e5657829003601f168201915b5050505050908060020154908060030160009054906101000a900460ff1690806004018054610ea190611c82565b80601f0160208091040260200160405190810160405280929190818152602001828054610ecd90611c82565b8015610f1a5780601f10610eef57610100808354040283529160200191610f1a565b820191906000526020600020905b815481529060010190602001808311610efd57829003601f168201915b5050505050908060050154908060060154905087565b60085481565b600b6020528060005260406000206000915090505481565b610f566110b8565b610f5f816111e0565b50565b6000600b60008581526020019081526020016000205490506000600760008381526020019081526020016000209050600084846000818110610fa757610fa66121e2565b5b9050602002013590506000600282610fbf9190612240565b03611010576040518060400160405280600381526020017f594553000000000000000000000000000000000000000000000000000000000081525082600401908161100a9190611e55565b50611058565b6040518060400160405280600281526020017f4e4f0000000000000000000000000000000000000000000000000000000000008152508260040190816110569190611e55565b505b60018260030160006101000a81548160ff021916908315150217905550827f2ec1f84b4079525f1ab2216f53a16f520efec75c91c517667151e55bbea7b9ec836004016040516110a891906122f5565b60405180910390a2505050505050565b60008054906101000a900473ffffffffffffffffffffffffffffffffffffffff1673ffffffffffffffffffffffffffffffffffffffff163373ffffffffffffffffffffffffffffffffffffffff1614611146576040517f08c379a000000000000000000000000000000000000000000000000000000000815260040161113d90612363565b60405180910390fd5b565b60607f92fd13387c7fe7befbc38d303d6468778fb9731bc4583f17d92989c6fcfdeaaa8260405160240161117c91906123ae565b604051602081830303815290604052907bffffffffffffffffffffffffffffffffffffffffffffffffffffffff19166020820180517bffffffffffffffffffffffffffffffffffffffffffffffffffffffff83818316178352505050509050919050565b3373ffffffffffffffffffffffffffffffffffffffff168173ffffffffffffffffffffffffffffffffffffffff160361124e576040517f08c379a000000000000000000000000000000000000000000000000000000000815260040161124590612415565b60405180910390fd5b80600160006101000a81548173ffffffffffffffffffffffffffffffffffffffff021916908373ffffffffffffffffffffffffffffffffffffffff1602179055508073ffffffffffffffffffffffffffffffffffffffff1660008054906101000a900473ffffffffffffffffffffffffffffffffffffffff1673ffffffffffffffffffffffffffffffffffffffff167fed8889f560326eb138920d842192f0eb3dd22b4f139c87a2c57538e05bae127860405160405180910390a350565b6000604051905090565b600080fd5b600080fd5b6000819050919050565b61133381611320565b811461133e57600080fd5b50565b6000813590506113508161132a565b92915050565b600073ffffffffffffffffffffffffffffffffffffffff82169050919050565b600061138182611356565b9050919050565b61139181611376565b811461139c57600080fd5b50565b6000813590506113ae81611388565b92915050565b600080604083850312156113cb576113ca611316565b5b60006113d985828601611341565b92505060206113ea8582860161139f565b9150509250929050565b6113fd81611320565b82525050565b600060208201905061141860008301846113f4565b92915050565b600080fd5b600080fd5b600080fd5b60008083601f8401126114435761144261141e565b5b8235905067ffffffffffffffff8111156114605761145f611423565b5b60208301915083602082028301111561147c5761147b611428565b5b9250929050565b60008060006040848603121561149c5761149b611316565b5b60006114aa86828701611341565b935050602084013567ffffffffffffffff8111156114cb576114ca61131b565b5b6114d78682870161142d565b92509250509250925092565b6000602082840312156114f9576114f8611316565b5b600061150784828501611341565b91505092915050565b600080fd5b6000601f19601f8301169050919050565b7f4e487b7100000000000000000000000000000000000000000000000000000000600052604160045260246000fd5b61155e82611515565b810181811067ffffffffffffffff8211171561157d5761157c611526565b5b80604052505050565b600061159061130c565b905061159c8282611555565b919050565b600067ffffffffffffffff8211156115bc576115bb611526565b5b6115c582611515565b9050602081019050919050565b82818337600083830152505050565b60006115f46115ef846115a1565b611586565b9050828152602081018484840111156116105761160f611510565b5b61161b8482856115d2565b509392505050565b600082601f8301126116385761163761141e565b5b81356116488482602086016115e1565b91505092915050565b6000806040838503121561166857611667611316565b5b600083013567ffffffffffffffff8111156116865761168561131b565b5b61169285828601611623565b92505060206116a385828601611341565b9150509250929050565b6116b681611376565b82525050565b60006020820190506116d160008301846116ad565b92915050565b6000602082840312156116ed576116ec611316565b5b60006116fb8482850161139f565b91505092915050565b6000819050919050565b600061172961172461171f84611356565b611704565b611356565b9050919050565b600061173b8261170e565b9050919050565b600061174d82611730565b9050919050565b61175d81611742565b82525050565b60006020820190506117786000830184611754565b92915050565b60008115159050919050565b6117938161177e565b811461179e57600080fd5b50565b6000813590506117b08161178a565b92915050565b600080604083850312156117cd576117cc611316565b5b60006117db85828601611341565b92505060206117ec858286016117a1565b9150509250929050565b600081519050919050565b600082825260208201905092915050565b60005b83811015611830578082015181840152602081019050611815565b60008484015250505050565b6000611847826117f6565b6118518185611801565b9350611861818560208601611812565b61186a81611515565b840191505092915050565b61187e8161177e565b82525050565b600060e082019050611899600083018a6113f4565b81810360208301526118ab818961183c565b90506118ba60408301886113f4565b6118c76060830187611875565b81810360808301526118d9818661183c565b90506118e860a08301856113f4565b6118f560c08301846113f4565b98975050505050505050565b600060408201905061191660008301856116ad565b61192360208301846116ad565b9392505050565b7f416c7265616479207265736f6c76656400000000000000000000000000000000600082015250565b6000611960601083611801565b915061196b8261192a565b602082019050919050565b6000602082019050818103600083015261198f81611953565b9050919050565b6000819050919050565b6119a981611996565b82525050565b6119b881611320565b82525050565b600061ffff82169050919050565b6119d5816119be565b82525050565b600063ffffffff82169050919050565b6119f4816119db565b82525050565b600081519050919050565b600082825260208201905092915050565b6000611a21826119fa565b611a2b8185611a05565b9350611a3b818560208601611812565b611a4481611515565b840191505092915050565b600060c083016000830151611a6760008601826119a0565b506020830151611a7a60208601826119af565b506040830151611a8d60408601826119cc565b506060830151611aa060608601826119eb565b506080830151611ab360808601826119eb565b5060a083015184820360a0860152611acb8282611a16565b9150508091505092915050565b60006020820190508181036000830152611af28184611a4f565b905092915050565b600081519050611b098161132a565b92915050565b600060208284031215611b2557611b24611316565b5b6000611b3384828501611afa565b91505092915050565b7f4d7573742062652070726f706f736564206f776e657200000000000000000000600082015250565b6000611b72601683611801565b9150611b7d82611b3c565b602082019050919050565b60006020820190508181036000830152611ba181611b65565b9050919050565b7f4e487b7100000000000000000000000000000000000000000000000000000000600052601160045260246000fd5b6000611be282611320565b91507fffffffffffffffffffffffffffffffffffffffffffffffffffffffffffffffff8203611c1457611c13611ba8565b5b600182019050919050565b6000611c2a82611320565b9150611c3583611320565b9250828201905080821115611c4d57611c4c611ba8565b5b92915050565b7f4e487b7100000000000000000000000000000000000000000000000000000000600052602260045260246000fd5b60006002820490506001821680611c9a57607f821691505b602082108103611cad57611cac611c53565b5b50919050565b60008190508160005260206000209050919050565b60006020601f8301049050919050565b600082821b905092915050565b600060088302611d157fffffffffffffffffffffffffffffffffffffffffffffffffffffffffffffffff82611cd8565b611d1f8683611cd8565b95508019841693508086168417925050509392505050565b6000611d52611d4d611d4884611320565b611704565b611320565b9050919050565b6000819050919050565b611d6c83611d37565b611d80611d7882611d59565b848454611ce5565b825550505050565b600090565b611d95611d88565b611da0818484611d63565b505050565b5b81811015611dc457611db9600082611d8d565b600181019050611da6565b5050565b601f821115611e0957611dda81611cb3565b611de384611cc8565b81016020851015611df2578190505b611e06611dfe85611cc8565b830182611da5565b50505b505050565b600082821c905092915050565b6000611e2c60001984600802611e0e565b1980831691505092915050565b6000611e458383611e1b565b9150826002028217905092915050565b611e5e826117f6565b67ffffffffffffffff811115611e7757611e76611526565b5b611e818254611c82565b611e8c828285611dc8565b600060209050601f831160018114611ebf5760008415611ead578287015190505b611eb78582611e39565b865550611f1f565b601f198416611ecd86611cb3565b60005b82811015611ef557848901518255600182019150602085019450602081019050611ed0565b86831015611f125784890151611f0e601f891682611e1b565b8355505b6001600288020188555050505b505050505050565b60006040820190508181036000830152611f41818561183c565b9050611f5060208301846113f4565b9392505050565b6000606082019050611f6c60008301866116ad565b611f7960208301856116ad565b611f8660408301846116ad565b949350505050565b7f42657474696e6720697320636c6f736564000000000000000000000000000000600082015250565b6000611fc4601183611801565b9150611fcf82611f8e565b602082019050919050565b60006020820190508181036000830152611ff381611fb7565b9050919050565b7f4d61726b657420616c7265616479207265736f6c766564000000000000000000600082015250565b6000612030601783611801565b915061203b82611ffa565b602082019050919050565b6000602082019050818103600083015261205f81612023565b9050919050565b7f42657420616d6f756e74206d757374206265203e203000000000000000000000600082015250565b600061209c601683611801565b91506120a782612066565b602082019050919050565b600060208201905081810360008301526120cb8161208f565b9050919050565b7f5945530000000000000000000000000000000000000000000000000000000000600082015250565b6000612108600383611801565b9150612113826120d2565b602082019050919050565b600060608201905061213360008301856116ad565b8181036020830152612144816120fb565b905061215360408301846113f4565b9392505050565b7f4e4f000000000000000000000000000000000000000000000000000000000000600082015250565b6000612190600283611801565b915061219b8261215a565b602082019050919050565b60006060820190506121bb60008301856116ad565b81810360208301526121cc81612183565b90506121db60408301846113f4565b9392505050565b7f4e487b7100000000000000000000000000000000000000000000000000000000600052603260045260246000fd5b7f4e487b7100000000000000000000000000000000000000000000000000000000600052601260045260246000fd5b600061224b82611320565b915061225683611320565b92508261226657612265612211565b5b828206905092915050565b6000815461227e81611c82565b6122888186611801565b945060018216600081146122a357600181146122b9576122ec565b60ff1983168652811515602002860193506122ec565b6122c285611cb3565b60005b838110156122e4578154818901526001820191506020810190506122c5565b808801955050505b50505092915050565b6000602082019050818103600083015261230f8184612271565b905092915050565b7f4f6e6c792063616c6c61626c65206279206f776e657200000000000000000000600082015250565b600061234d601683611801565b915061235882612317565b602082019050919050565b6000602082019050818103600083015261237c81612340565b9050919050565b61238c8161177e565b82525050565b6020820160008201516123a86000850182612383565b50505050565b60006020820190506123c36000830184612392565b92915050565b7f43616e6e6f74207472616e7366657220746f2073656c66000000000000000000600082015250565b60006123ff601783611801565b915061240a826123c9565b602082019050919050565b6000602082019050818103600083015261242e816123f2565b905091905056fea2646970667358221220083f67fbc0443e6f2f9ca86edd43ed3d7b56205a08e113a24f3b92ff30a2cf6064736f6c63430008130033",
  "linkReferences": {},
  "deployedLinkReferences": {}
}